:020000040800F2
:10000000C80600206901000871010008730100089A
:100010007501000877010008790100080000000060
:100020000000000000000000000000007B0100084C
:100030007D010008000000007F0100088101000828
:100040008301000883010008830100088301000880
:100050008301000883010008830100088301000870
:1000600000000000830100088301000883010008EC
:100070002502000883010008830100080000000039
:10008000830100086D0300080000000083010008E0
:100090008301000883010008830100088301000830
:1000A0008301000883010008830100088301000820
:1000B00083010008000000000000000000000000B4
:1000C00083010008000000008301000800F002F82E
:1000D00000F03AF80AA090E8000C82448344AAF1A8
:1000E0000107DA4501D100F02FF8AFF2090EBAE8A6
:1000F0000F0013F0010F18BFFB1A43F0010318475C
:10010000E016000000170000103A24BF78C878C13C
:10011000FAD8520724BF30C830C144BF04680C600D
:10012000704700000023002400250026103A28BF55
:1001300078C1FBD8520728BF30C148BF0B60704759
:100140001FB51FBD10B510BD00F031F81146FFF707
:10015000F7FF00F029FF00F04FF803B4FFF7F2FFBC
:1001600003BC00F057F800000948804709480047E1
:10017000FEE7FEE7FEE7FEE7FEE7FEE7FEE7FEE757
:10018000FEE7FEE704480549054A064B70470000B4
:1001900001030008CD000008C8000020C8060020A8
:1001A000C8020020C802002070477047704775469B
:1001B00000F02CF8AE4605006946534620F00700D3
:1001C000854618B020B5FFF7DDFFBDE820404FF0B1
:1001D00000064FF000074FF000084FF0000B21F031
:1001E0000701AC46ACE8C009ACE8C009ACE8C009FE
:1001F000ACE8C0098D46704710B50446AFF30080E7
:100200002046BDE81040FFF7A8BF00000048704737
:100210006400002001491820ABBEFEE72600020062
:100220007047000010B501F09FFA0D4800F0B5F9D5
:100230000C49088008214FF0904000F0AFFD0A49BA
:1002400008700A48006820F0100010300749086064
:100250000846006820F020002030086010BD000033
:1002600000240140040000200600002008000020B7
:1002700001480088704700000400002010B54021AC
:100280004FF0904000F044FD10BD000001480078A0
:10029000704700000600002010B580214FF090400C
:1002A00000F07CFD10BD000010B50221014800F0F7
:1002B0002FFD10BD0004004810B510214FF09040F4
:1002C00000F028FD10BD10B510214FF0904000F057
:1002D0001FFD10BD10B504214FF0904000F018FD37
:1002E00010BD10B501214FF0904000F011FD10BD80
:1002F00010B50121014800F00BFD10BD00040048BD
:100300001748006820F00100401C1549086000BF34
:1003100013480068C0F340000028F9D01048406836
:1003200020F003000E49486000BF0D484068C0F34C
:1003300081000028F9D10A49486041F61070C8626E
:100340000846006807490840054908604FF48010D6
:1003500008634FF41F008860C803034908607047B2
:1003600000100240FFFFF2FE08ED00E010B50D485E
:100370000078401C0B49087008460078082804DB08
:1003800000F0B4FE00200749087001F013FA0121C3
:10039000054801F0E7F90448006920F0010002492E
:1003A000086110BD63000020001000400B78426817
:1003B00063F3082242604B78826863F341028260F3
:1003C0008B78826863F3CB228260CA78521EC36A3C
:1003D00062F31753C362704700210170417081704E
:1003E0000121C1707047826861F30002826070472A
:1003F000012A03D143680B43436003E012B9436809
:100400008B434360704710B5122964D2DFE801F0D6
:10041000090E13181D22272C31363B40454A4F54F4
:10042000595E046963F30204046155E0046963F3EF
:10043000C504046150E0046963F3881404614BE06F
:10044000046963F34B24046146E0046963F30E34EA
:10045000046141E0046963F3D13404613CE0046960
:1004600063F39444046137E0046963F3575404610F
:1004700032E0046963F31A6404612DE0046963F3F4
:10048000DD64046128E0C46863F30204C46023E00F
:10049000C46863F3C504C4601EE0C46863F38814D1
:1004A000C46019E0C46863F34B24C46014E0C468FA
:1004B00063F30E34C4600FE0C46863F3D134C460E6
:1004C0000AE0C46863F39444C46005E0C46863F35D
:1004D0005754C46000E000BF00BF112A5AD2DFE8C1
:1004E00002F059090E13181D22272C31363B4045C6
:1004F0004A4F5400446B61F3040444634BE0446B83
:1005000061F34914446346E0446B61F38E24446311
:1005100041E0446B61F3D33444633CE0446B61F3EA
:100520001854446337E0446B61F35D64446332E024
:10053000046B61F3040404632DE0046B61F349145C
:10054000046328E0046B61F38E24046323E0046BEE
:1005500061F3D33404631EE0046B61F31854046345
:1005600019E0046B61F35D64046314E0C46A61F331
:100570000404C4620FE0C46A61F34914C4620AE06F
:10058000C46A61F38E24C46205E0C46A61F3D334A3
:10059000C46200E000BF00BF10BD0146C86C80B25D
:1005A000704707290ADD836823F0007303F10073A5
:1005B0008360836861F35343836007E0836823F0BB
:1005C00000738360836861F353438360836862F3DD
:1005D000145383607047000000B523480068234926
:1005E00088421BD922480088C0F38020B0B9204837
:1005F0000088C0F3402088B91D480078C0F340004F
:1006000060B11B480068C0F3005038B100F038FEFC
:10061000012018490870002013490860124800683A
:1006200012491B3988421DD911480088C0F3003097
:10063000C0B90F480088C0F3C02098B90C480078B2
:10064000C0F3400070B10A480068C0F3005048B1E0
:1006500000F0C2FA0648006820F0807000F1807057
:100660000349086000BD00000C0000201B7512004B
:10067000080000203C00002000B505480068C0F3D9
:10068000806010B100F024F801E000F003F800BD34
:100690000800002000B50B480078002804DD094858
:1006A0000078401E0749087078200749086007480D
:1006B000006820F0806000F180600449086000F06C
:1006C000A9FF00BD3D0000203800002008000020E8
:1006D00000B50A480078002804DD08480078401E6C
:1006E000064908701E20064908600648006820F088
:1006F00080600449086000F08DFF00BD3C000020D0
:1007000038000020080000200648006820F00100A2
:10071000044908600846006820F00200801C086058
:10072000704700000800002000B50C480088C0F3A6
:10073000402010B100F0C0FD0EE008480068C0F392
:10074000005010B100F0D8F906E004480068C0F38A
:10075000405008B100F014FA00BD0000080000206D
:100760000349496860F30711014A5160704700006E
:1007700000100240052827D2DFE800F0030A111814
:100780001F00134A126861F30002114B1A601CE04B
:100790000F4A126861F310420D4B1A6015E00C4AC3
:1007A000126861F318620A4B1A600EE0084A126A76
:1007B00061F30002064B1A6207E0054A526A61F3D0
:1007C0000002034B5A6200E000BF00BF7047000008
:1007D000001002400349096B60F35961014A11633B
:1007E000704700000010024000B503460120FFF7EB
:1007F000F1FF0348406D63F349200149486500BD9E
:100800000010024010B501290DD10E4B03EB104230
:10081000126800F01F040123A3401A43094C04EBA3
:1008200010431A600CE0074B03EB1042126800F013
:100830001F040123A3409A43024C04EB10431A60A7
:1008400010BD00000010024000B526480078C0F33B
:10085000C00010B323480078C0F38000E8B92148F5
:100860000078C0F34000C0B11E480068C0F3C0402B
:1008700098B11C480088C0F3802070B919480088DE
:10088000C0F3402048B917480068C0F3006020B9A1
:1008900001201549087000F0F3FC12480078C0F3FD
:1008A0008000E8B10F480068C0F3C040C0B10D48F7
:1008B0000078C0F3C00098B90A480088C0F300303F
:1008C00070B908480088C0F3C02048B905480068DE
:1008D000C0F3006020B9022003490870FFF724FF2D
:1008E00000BD0000080000203C00002010B5314889
:1008F0000068C0F30050B0B92E480068C0F3405003
:1009000088B9FFF7D9FC08214FF0904000F046FA73
:1009100029490870FFF7D7FC2648006820F020001E
:1009200020302449086023480078C0F34010002894
:100930003FD0FFF7ABFC30B120480078401E40B2FA
:100940001E49087005E01D480078401C40B21B4954
:1009500008701A4890F900000A280FDD0A2017498C
:1009600008701448006820F0080012490860084622
:10097000006820F00400001D086014E00F4890F9A2
:10098000000010F10A0F0EDAF6200C490870094831
:10099000006820F008000830064908600846006832
:1009A00020F0040008600348006820F0200001499E
:1009B000086010BD08000020060000206100002033
:1009C00010B524480078C0F38010002840D0FFF70D
:1009D00063FC30B120480078401C40B21E490870CA
:1009E00005E01D480078401E40B21B4908701A48B7
:1009F00090F900000A2810DD0A20174908701548F0
:100A0000006820F08000134908600846006820F460
:100A1000807000F58070086014E00F4890F90000C5
:100A200010F10A0F0EDAF6200B4908700948006829
:100A300020F080008030074908600846006820F4F4
:100A4000807008600348006820F040000149086099
:100A500010BD0000080000206200002010B52248F0
:100A60000078C0F3001000283DD040F6AE001F49CA
:100A7000088040F6C4101E490880FFF7F9FB0446C1
:100A8000FFF721FC19480088844206DA19480078EB
:100A9000401C40B21749087009E01548008884429C
:100AA00005DD14480078401E40B212490870114814
:100AB00090F90000042804DD00F05CFD04200D49DD
:100AC00008700C4890F9000010F1040F04DAFFF7E9
:100AD0001BFEFC20074908700348006820F0100046
:100AE0000149086000BF10BD080000200000002080
:100AF00002000020600000201C480088C0F3C020D5
:100B000098BB1A480088C0F3003070BB17480068D3
:100B1000C0F3C04048B31548006820F4006000F5F9
:100B20000060124908600846006820F48060086090
:100B30000846006820F4007008600846006820F449
:100B4000005008600846006820F4804000F58040AE
:100B500008607A200649086078200649086001206C
:100B6000054908600020054908607047080000201A
:100B70001400002010000020180000200C000020AD
:100B800014480088C0F3003020B912480068C0F350
:100B9000C04020B90F48007800F00100C0B10D48F6
:100BA000006820F480600B4908600846006820F463
:100BB000805000F5805008600846006820F48040AE
:100BC00008600846006820F4005000F500500860F6
:100BD00070470000080000201B480088C0F3C020B8
:100BE00080BB19480088C0F3003058BB1648006825
:100BF000C0F3C04030B31448006820F4006000F532
:100C00000060114908600846006820F480600860B0
:100C10000846006820F4007008600846006820F468
:100C2000005008600846006820F4804000F58040CD
:100C300008601B200549086019200549086001204B
:100C400004490860704700000800002014000020DC
:100C5000100000201800002019480088C0F38020F0
:100C600058BB17480088C0F3402030BB14480068C8
:100C7000C0F3C04008B31248006820F4007000F5CB
:100C800000700F4908600846006820F48050086032
:100C90000846006820F4006008600846006820F4F8
:100CA000804008600846006820F4005000F50050BD
:100CB0000860782003490860704700BFFCE7000027
:100CC000080000201000002010480088C0F3802099
:100CD000D8B90E480068C0F3C040B0B10B480068F6
:100CE00020F48050094908600846006820F48060BC
:100CF00000F5806008600846006820F480400860C5
:100D00000846006820F40050086070470800002082
:100D100081627047816170470AB1816100E0816240
:100D2000704770B50A4600211488A3B233E003F07F
:100D300001046CB304684E000325B540AC43046065
:100D400094794D00AC4005682C430460446801254B
:100D50008D40AC434460446815798D402C43446019
:100D600084684E000325B540AC438460D4794D00BF
:100D7000AC4085682C438460C4684E000325B540B0
:100D8000AC43C46054794D00AC40C5682C43C4608A
:100D90005B104C1CA1B2002BC9DC70BD02460020C8
:100DA00013690B408B4200D000E0012070472DE911
:100DB000FC4707460C4615461E46DDE90A89EA4609
:100DC0008DF807508DF806608DF8048000948DF83A
:100DD000059051463846FFF7A4FFBDE8FC870000A8
:100DE0001CB5012000F0DAFC012000F0C5FC002059
:100DF00000F0D4FC00F0CAFC00F0B6FC0020FFF7C5
:100E0000F3FC01210020FFF7B5FC0120FFF7E2FC15
:100E10000020FFF7A5FC01214548FFF7F3FC012165
:100E20004348401CFFF7EEFC01214248FFF7EAFC73
:100E300001214148FFF7E6FC002000900123022237
:100E4000194601903D48FFF7B2FF002000900123B2
:100E50000222114601903948FFF7A9FF00200090B7
:100E600001230222194601904FF09040FFF79FFFA7
:100E70000020009001230222042101904FF09040B5
:100E8000FFF795FF012000210B460222CDE900105B
:100E900008214FF09040FFF78AFF01200021034610
:100EA0000246CDE9001010214FF09040FFF77FFF80
:100EB0000020012103230222CDE9001020214FF060
:100EC0009040FFF774FF0020009001230222402190
:100ED00001904FF09040FFF76AFF012000210B4680
:100EE0000222CDE9001080214FF09040FFF75FFF14
:100EF00000F0FEFB262225210C2000F05DF92046A3
:100F0000FFF76AFA0020607021460D48FFF74EFA9D
:100F100001210B48FFF767FA012220210848FFF75B
:100F200067FA0723012205210548FFF76CFA1CBD6B
:100F3000110014000900180004001C0000040048FF
:100F40000024014010B51648007800F0010240214D
:100F50004FF09040FFF7E0FE11480088C0F3803268
:100F600004214FF09040FFF7D7FE0D480088C0F3F2
:100F7000403201214FF09040FFF7CEFE0848006854
:100F8000C0F3805202210748FFF7C6FE04480068FC
:100F9000C0F3004018B101210248FFF7B9FE10BDAF
:100FA000080000200004004800F006FB17E000F0F5
:100FB000DBFBFFF7C7FF0A48007800F0010060B9CB
:100FC000FFF7FEFC00F054FBFFF790FCFFF73CFC42
:100FD000FFF744FDFFF700FB01E0FFF7A5FBE6E7A5
:100FE000080000200C480078002805DD0A48007839
:100FF000401E094908700DE00748007850B90748BD
:10100000006820F4003000F50030044908601E201C
:1010100001490870704700002900002008000020E6
:1010200010B51048007800F00100D0B90D480068F4
:10103000C0F3005020B90B480068C0F3405080B1A5
:101040000948007828B9FFF737F9012006490870E8
:1010500007E0012207210548FFF7A3FA0020024913
:10106000087010BD0800002040000020002401404E
:1010700000B51B48006820F40000194908600846C4
:10108000007800F0010070B108460068C0F34040ED
:1010900010B1FFF7F1FA22E01248007800281EDDB7
:1010A000FFF716FB1BE00E480078C0F34000B0B11C
:1010B0000C480078002806DD0B480078002802DD87
:1010C000FFF7DAFA0BE007480078002801DDFFF7A8
:1010D000FFFA05480078002801DDFFF7DBFA00BDC4
:1010E000080000203C0000203D00002010B52C48E6
:1010F000006828B12A480068401E2949086001E0BC
:1011000000F0A0FA2748006820F040004030254950
:1011100008602548D0E90030244A06CA591A90418F
:101120000AD32148D0E900100A3140F100001F4ADB
:10113000C2E90010FFF774FF1B48D0E900201C49EA
:10114000D1E90031D21A88410BD31749C822D1E91D
:101150000040A21840F100001549C1E90020FFF746
:1011600087FF1148D0E90030124A06CA591A904147
:101170000CD30D48D0E900204FF47A71511840F19A
:1011800000000C4AC2E9001000F06AF90648D0E9F4
:101190000030591C40F10000034AC2E9001010BDA4
:1011A00038000020080000203000002050000020FF
:1011B00048000020580000202DE9F0470B46144657
:1011C0004FF0000C00BF2C4A1268C2F302211D46EA
:1011D00026460A46C2F10709B9F1040F02D94FF0B9
:1011E000040901E0C2F10709C84602F10409B9F196
:1011F000070F02D24FF0000901E0A2F103094F46A8
:101200004FF0010909FA08F9A9F1010909EA0509EC
:1012100009FA07F94FF0010A0AFA07FAAAF1010AD6
:101220000AEA060A49EA0A09CC460146624600294A
:1012300004DB15072E0E114D6E5407E015072F0E17
:101240000D4D0C3501F00F06361FAF5500BF01469E
:1012500000290DDB00BF00BF01F01F050122AA40DD
:101260004D09AD0005F1E025C5F8002100BF00BF24
:1012700000BFBDE8F08700000CED00E000E400E0F6
:1012800000B50C480088C0F3C02010B100F014F87D
:101290000EE008480068C0F3005010B1FFF7DCFC16
:1012A00006E004480068C0F3405008B1FFF70CFDA9
:1012B00000BD0000080000201B48006820F48040AA
:1012C000194908600846006820F400500860084684
:1012D000006820F4006008600846006820F4007090
:1012E00008600846006820F48050086008460068DE
:1012F000C0F3405038B10846006820F4806000F523
:101300008060086005E00848006820F480600649B5
:1013100008600548006820F40020034908600120A7
:101320000249087070470000080000202A000020D1
:101330003A480088C0F3402028B138480088C0F3FC
:10134000C02000B1704735480088C0F3402008B382
:1013500033480068F0B132480068401E30490860E8
:1013600008460068B0B92D48006820F400502B49A9
:1013700008600846006820F4806000F5806008601E
:101380000846006820F4007008600846006820F0F5
:101390008070086021480088C0F3C020E0B3214875
:1013A0000068B8B91E48006868B11C48006820F49D
:1013B000005000F500501949086019480068401EA7
:1013C000174908600BE01548006820F400501349E5
:1013D000086004E013480068401E12490860124883
:1013E0000068C8B110480068401E0F4908600846F0
:1013F000006888B90948006820F4804007490860FF
:101400000846006820F4805000F5805008600846C7
:10141000006820F40060086000BF93E70800002027
:101420001000002018000020140000200A48006866
:10143000C0F3406070B108480068C0F3404030B16C
:101440000548006820F400300349086002E00320EA
:101450000249087070470000080000203D0000208D
:1014600000B53F48006820F4000000F500003C494A
:1014700008603C480078401C3A49087038480068C9
:10148000C0F3C04088B938480078002805DD3648E8
:101490000078401E3449087007E03148006820F4A5
:1014A000002000F500202E4908602D480068C0F398
:1014B000005058B12A480088C0F3003020B92B48AA
:1014C0000068401C29490860FFF732FF2448007873
:1014D00000F0010048B922480088C0F3C02020B9BC
:1014E0001F480088C0F3402050B11D480068800D9F
:1014F000C1431B48006861F396501949086015E024
:101500001B480078401C1A490870084600780228D9
:101510000CDD13480068800DC1431148006861F379
:1015200096500F4908600020114908700C48007857
:1015300000F0010090B10B4800781E2803D0094844
:1015400000783C2801D1FFF771FF064800783C285D
:1015500004D1FFF747FD00200249087000BD0000DC
:1015600008000020280000202A0000200C00002095
:101570003F0000200E48006820F00100401C0C498C
:1015800008600846006820F002000860084600680D
:1015900020F0007000F1007008600846006820F438
:1015A000003000F5003008600020024908707047E4
:1015B000080000202800002010B5FFF711FC0020D3
:1015C0000D490860FEF78DFEFEF784FEFEF756FE1D
:1015D000FEF779FEFEF78CFEFEF766FE0020074957
:1015E000086007490860074908600749086007491B
:1015F00008600749087010BD080000200C0000209A
:1016000010000020140000201800002038000020E6
:10161000290000200A48006820F4802000F580207E
:10162000074908600846006820F4004000F50040C3
:1016300008600846006820F48030086070470000A9
:10164000080000200948006820F48020074908604D
:101650000846006820F4004008600846006820F44E
:10166000803000F5803008607047000008000020DE
:1016700000B51D480078C0F3C010B8B11A48006822
:10168000C0F3405070BB1848006820F48010164921
:1016900008600846006820F4001000F5001008609B
:1016A000FFF70AFE0220114908701BE00E4800886F
:1016B000C0F30020B0B10C480068C0F3005088B9F6
:1016C0000948006820F4801000F580100649086081
:1016D0000846006820F400100860FFF7EDFD0120C7
:1016E0000249087000BD0000080000203D000020F5
:1016F00010B5242223211120FFF75EFD0F48C0689A
:1017000020F00100401C0D49C8600846006820F028
:10171000080008600846006820F002000860012107
:10172000064800F015F84FF4FA720121034800F062
:1017300007F80121014800F010F810BD001000402A
:10174000C1628262436923F001035B1C43617047FD
:10175000426861F3000242607047026861F3000270
:1017600002607047C16270474AF6AA2001490860CA
:1017700070470000003000400349496860F30201EF
:10178000014A516070470000003000404CF6CC40E8
:1017900001490860704700000030004018B900217E
:1017A000034A116003E045F25551014A1160704748
:1017B0000030004010B508480088C0F3C03050B178
:1017C0000648006800F0010080F001020121034892
:1017D0001438FFF7A1FA10BD0800002014040048D7
:1017E0000018000800000020640000000801000844
:1017F000641800086400002064060000240100084A
:1018000000000000000000000000000000000000D8
:1018100000000000000000000000000000000000C8
:1018200000000000000000000000000000000000B8
:1018300000000000000000000000000000000000A8
:101840000000000000000000000000000000000098
:101850000000000000000000000000000000000088
:041860000000000084
:04000005080000CD22
:00000001FF
